{
  "_format": "hh-sol-artifact-1",
  "contractName": "PMToken",
  "sourceName": "contracts/PMToken.sol",
  "abi": [
    {
      "inputs": [],
      "stateMutability": "nonpayable",
      "type": "constructor"
    },
    {
      "anonymous": false,
      "inputs": [
        {
          "indexed": true,
          "internalType": "address",
          "name": "owner",
          "type": "address"
        },
        {
          "indexed": true,
          "internalType": "address",
          "name": "approved",
          "type": "address"
        },
        {
          "indexed": true,
          "internalType": "uint256",
          "name": "tokenId",
          "type": "uint256"
        }
      ],
      "name": "Approval",
      "type": "event"
    },
    {
      "anonymous": false,
      "inputs": [
        {
          "indexed": true,
          "internalType": "address",
          "name": "owner",
          "type": "address"
        },
        {
          "indexed": true,
          "internalType": "address",
          "name": "operator",
          "type": "address"
        },
        {
          "indexed": false,
          "internalType": "bool",
          "name": "approved",
          "type": "bool"
        }
      ],
      "name": "ApprovalForAll",
      "type": "event"
    },
    {
      "anonymous": false,
      "inputs": [
        {
          "indexed": true,
          "internalType": "address",
          "name": "previousOwner",
          "type": "address"
        },
        {
          "indexed": true,
          "internalType": "address",
          "name": "newOwner",
          "type": "address"
        }
      ],
      "name": "OwnershipTransferred",
      "type": "event"
    },
    {
      "anonymous": false,
      "inputs": [
        {
          "indexed": true,
          "internalType": "address",
          "name": "from",
          "type": "address"
        },
        {
          "indexed": true,
          "internalType": "address",
          "name": "to",
          "type": "address"
        },
        {
          "indexed": true,
          "internalType": "uint256",
          "name": "tokenId",
          "type": "uint256"
        }
      ],
      "name": "Transfer",
      "type": "event"
    },
    {
      "inputs": [
        {
          "internalType": "address",
          "name": "to",
          "type": "address"
        },
        {
          "internalType": "uint256",
          "name": "tokenId",
          "type": "uint256"
        }
      ],
      "name": "approve",
      "outputs": [],
      "stateMutability": "nonpayable",
      "type": "function"
    },
    {
      "inputs": [
        {
          "internalType": "address",
          "name": "owner",
          "type": "address"
        }
      ],
      "name": "balanceOf",
      "outputs": [
        {
          "internalType": "uint256",
          "name": "",
          "type": "uint256"
        }
      ],
      "stateMutability": "view",
      "type": "function"
    },
    {
      "inputs": [
        {
          "internalType": "uint256",
          "name": "tokenId",
          "type": "uint256"
        }
      ],
      "name": "burn",
      "outputs": [],
      "stateMutability": "nonpayable",
      "type": "function"
    },
    {
      "inputs": [
        {
          "internalType": "uint256",
          "name": "tokenId",
          "type": "uint256"
        }
      ],
      "name": "getApproved",
      "outputs": [
        {
          "internalType": "address",
          "name": "",
          "type": "address"
        }
      ],
      "stateMutability": "view",
      "type": "function"
    },
    {
      "inputs": [
        {
          "internalType": "address",
          "name": "owner",
          "type": "address"
        },
        {
          "internalType": "address",
          "name": "operator",
          "type": "address"
        }
      ],
      "name": "isApprovedForAll",
      "outputs": [
        {
          "internalType": "bool",
          "name": "",
          "type": "bool"
        }
      ],
      "stateMutability": "view",
      "type": "function"
    },
    {
      "inputs": [],
      "name": "name",
      "outputs": [
        {
          "internalType": "string",
          "name": "",
          "type": "string"
        }
      ],
      "stateMutability": "view",
      "type": "function"
    },
    {
      "inputs": [],
      "name": "owner",
      "outputs": [
        {
          "internalType": "address",
          "name": "",
          "type": "address"
        }
      ],
      "stateMutability": "view",
      "type": "function"
    },
    {
      "inputs": [
        {
          "internalType": "uint256",
          "name": "tokenId",
          "type": "uint256"
        }
      ],
      "name": "ownerOf",
      "outputs": [
        {
          "internalType": "address",
          "name": "",
          "type": "address"
        }
      ],
      "stateMutability": "view",
      "type": "function"
    },
    {
      "inputs": [],
      "name": "renounceOwnership",
      "outputs": [],
      "stateMutability": "nonpayable",
      "type": "function"
    },
    {
      "inputs": [
        {
          "internalType": "address",
          "name": "to",
          "type": "address"
        },
        {
          "internalType": "string",
          "name": "uri",
          "type": "string"
        }
      ],
      "name": "safeMint",
      "outputs": [],
      "stateMutability": "nonpayable",
      "type": "function"
    },
    {
      "inputs": [
        {
          "internalType": "address",
          "name": "from",
          "type": "address"
        },
        {
          "internalType": "address",
          "name": "to",
          "type": "address"
        },
        {
          "internalType": "uint256",
          "name": "tokenId",
          "type": "uint256"
        }
      ],
      "name": "safeTransferFrom",
      "outputs": [],
      "stateMutability": "nonpayable",
      "type": "function"
    },
    {
      "inputs": [
        {
          "internalType": "address",
          "name": "from",
          "type": "address"
        },
        {
          "internalType": "address",
          "name": "to",
          "type": "address"
        },
        {
          "internalType": "uint256",
          "name": "tokenId",
          "type": "uint256"
        },
        {
          "internalType": "bytes",
          "name": "data",
          "type": "bytes"
        }
      ],
      "name": "safeTransferFrom",
      "outputs": [],
      "stateMutability": "nonpayable",
      "type": "function"
    },
    {
      "inputs": [
        {
          "internalType": "address",
          "name": "operator",
          "type": "address"
        },
        {
          "internalType": "bool",
          "name": "approved",
          "type": "bool"
        }
      ],
      "name": "setApprovalForAll",
      "outputs": [],
      "stateMutability": "nonpayable",
      "type": "function"
    },
    {
      "inputs": [
        {
          "internalType": "bytes4",
          "name": "interfaceId",
          "type": "bytes4"
        }
      ],
      "name": "supportsInterface",
      "outputs": [
        {
          "internalType": "bool",
          "name": "",
          "type": "bool"
        }
      ],
      "stateMutability": "view",
      "type": "function"
    },
    {
      "inputs": [],
      "name": "symbol",
      "outputs": [
        {
          "internalType": "string",
          "name": "",
          "type": "string"
        }
      ],
      "stateMutability": "view",
      "type": "function"
    },
    {
      "inputs": [
        {
          "internalType": "uint256",
          "name": "index",
          "type": "uint256"
        }
      ],
      "name": "tokenByIndex",
      "outputs": [
        {
          "internalType": "uint256",
          "name": "",
          "type": "uint256"
        }
      ],
      "stateMutability": "view",
      "type": "function"
    },
    {
      "inputs": [
        {
          "internalType": "address",
          "name": "owner",
          "type": "address"
        },
        {
          "internalType": "uint256",
          "name": "index",
          "type": "uint256"
        }
      ],
      "name": "tokenOfOwnerByIndex",
      "outputs": [
        {
          "internalType": "uint256",
          "name": "",
          "type": "uint256"
        }
      ],
      "stateMutability": "view",
      "type": "function"
    },
    {
      "inputs": [
        {
          "internalType": "uint256",
          "name": "tokenId",
          "type": "uint256"
        }
      ],
      "name": "tokenURI",
      "outputs": [
        {
          "internalType": "string",
          "name": "",
          "type": "string"
        }
      ],
      "stateMutability": "view",
      "type": "function"
    },
    {
      "inputs": [],
      "name": "totalSupply",
      "outputs": [
        {
          "internalType": "uint256",
          "name": "",
          "type": "uint256"
        }
      ],
      "stateMutability": "view",
      "type": "function"
    },
    {
      "inputs": [
        {
          "internalType": "address",
          "name": "from",
          "type": "address"
        },
        {
          "internalType": "address",
          "name": "to",
          "type": "address"
        },
        {
          "internalType": "uint256",
          "name": "tokenId",
          "type": "uint256"
        }
      ],
      "name": "transferFrom",
      "outputs": [],
      "stateMutability": "nonpayable",
      "type": "function"
    },
    {
      "inputs": [
        {
          "internalType": "address",
          "name": "newOwner",
          "type": "address"
        }
      ],
      "name": "transferOwnership",
      "outputs": [],
      "stateMutability": "nonpayable",
      "type": "function"
    }
  ],
  "bytecode": "0x60806040523480156200001157600080fd5b506040518060400160405280600781526020017f504d546f6b656e000000000000000000000000000000000000000000000000008152506040518060400160405280600381526020017f504d54000000000000000000000000000000000000000000000000000000000081525081600090816200008f919062000412565b508060019081620000a1919062000412565b505050620000c4620000b8620000ca60201b60201c565b620000d260201b60201c565b620004f9565b600033905090565b6000600b60009054906101000a900473ffffffffffffffffffffffffffffffffffffffff16905081600b60006101000a81548173ffffffffffffffffffffffffffffffffffffffff021916908373ffffffffffffffffffffffffffffffffffffffff1602179055508173ffffffffffffffffffffffffffffffffffffffff168173ffffffffffffffffffffffffffffffffffffffff167f8be0079c531659141344cd1fd0a4f28419497f9722a3daafe3b4186f6b6457e060405160405180910390a35050565b600081519050919050565b7f4e487b7100000000000000000000000000000000000000000000000000000000600052604160045260246000fd5b7f4e487b7100000000000000000000000000000000000000000000000000000000600052602260045260246000fd5b600060028204905060018216806200021a57607f821691505b60208210810362000230576200022f620001d2565b5b50919050565b60008190508160005260206000209050919050565b60006020601f8301049050919050565b600082821b905092915050565b6000600883026200029a7fffffffffffffffffffffffffffffffffffffffffffffffffffffffffffffffff826200025b565b620002a686836200025b565b95508019841693508086168417925050509392505050565b6000819050919050565b6000819050919050565b6000620002f3620002ed620002e784620002be565b620002c8565b620002be565b9050919050565b6000819050919050565b6200030f83620002d2565b620003276200031e82620002fa565b84845462000268565b825550505050565b600090565b6200033e6200032f565b6200034b81848462000304565b505050565b5b8181101562000373576200036760008262000334565b60018101905062000351565b5050565b601f821115620003c2576200038c8162000236565b62000397846200024b565b81016020851015620003a7578190505b620003bf620003b6856200024b565b83018262000350565b50505b505050565b600082821c905092915050565b6000620003e760001984600802620003c7565b1980831691505092915050565b6000620004028383620003d4565b9150826002028217905092915050565b6200041d8262000198565b67ffffffffffffffff811115620004395762000438620001a3565b5b62000445825462000201565b6200045282828562000377565b600060209050601f8311600181146200048a576000841562000475578287015190505b620004818582620003f4565b865550620004f1565b601f1984166200049a8662000236565b60005b82811015620004c4578489015182556001820191506020850194506020810190506200049d565b86831015620004e45784890151620004e0601f891682620003d4565b8355505b6001600288020188555050505b505050505050565b61383c80620005096000396000f3fe608060405234801561001057600080fd5b50600436106101375760003560e01c80636352211e116100b8578063a22cb4651161007c578063a22cb4651461034e578063b88d4fde1461036a578063c87b56dd14610386578063d204c45e146103b6578063e985e9c5146103d2578063f2fde38b1461040257610137565b80636352211e146102a857806370a08231146102d8578063715018a6146103085780638da5cb5b1461031257806395d89b411461033057610137565b806323b872dd116100ff57806323b872dd146101f45780632f745c591461021057806342842e0e1461024057806342966c681461025c5780634f6ccce71461027857610137565b806301ffc9a71461013c57806306fdde031461016c578063081812fc1461018a578063095ea7b3146101ba57806318160ddd146101d6575b600080fd5b6101566004803603810190610151919061236a565b61041e565b60405161016391906123b2565b60405180910390f35b610174610430565b604051610181919061245d565b60405180910390f35b6101a4600480360381019061019f91906124b5565b6104c2565b6040516101b19190612523565b60405180910390f35b6101d460048036038101906101cf919061256a565b610508565b005b6101de61061f565b6040516101eb91906125b9565b60405180910390f35b61020e600480360381019061020991906125d4565b61062c565b005b61022a6004803603810190610225919061256a565b61068c565b60405161023791906125b9565b60405180910390f35b61025a600480360381019061025591906125d4565b610731565b005b610276600480360381019061027191906124b5565b610751565b005b610292600480360381019061028d91906124b5565b6107ad565b60405161029f91906125b9565b60405180910390f35b6102c260048036038101906102bd91906124b5565b61081e565b6040516102cf9190612523565b60405180910390f35b6102f260048036038101906102ed9190612627565b6108cf565b6040516102ff91906125b9565b60405180910390f35b610310610986565b005b61031a61099a565b6040516103279190612523565b60405180910390f35b6103386109c4565b604051610345919061245d565b60405180910390f35b61036860048036038101906103639190612680565b610a56565b005b610384600480360381019061037f91906127f5565b610a6c565b005b6103a0600480360381019061039b91906124b5565b610ace565b6040516103ad919061245d565b60405180910390f35b6103d060048036038101906103cb9190612919565b610ae0565b005b6103ec60048036038101906103e79190612975565b610b19565b6040516103f991906123b2565b60405180910390f35b61041c60048036038101906104179190612627565b610bad565b005b600061042982610c30565b9050919050565b60606000805461043f906129e4565b80601f016020809104026020016040519081016040528092919081815260200182805461046b906129e4565b80156104b85780601f1061048d576101008083540402835291602001916104b8565b820191906000526020600020905b81548152906001019060200180831161049b57829003601f168201915b5050505050905090565b60006104cd82610caa565b6004600083815260200190815260200160002060009054906101000a900473ffffffffffffffffffffffffffffffffffffffff169050919050565b60006105138261081e565b90508073ffffffffffffffffffffffffffffffffffffffff168373ffffffffffffffffffffffffffffffffffffffff1603610583576040517f08c379a000000000000000000000000000000000000000000000000000000000815260040161057a90612a87565b60405180910390fd5b8073ffffffffffffffffffffffffffffffffffffffff166105a2610cf5565b73ffffffffffffffffffffffffffffffffffffffff1614806105d157506105d0816105cb610cf5565b610b19565b5b610610576040517f08c379a000000000000000000000000000000000000000000000000000000000815260040161060790612b19565b60405180910390fd5b61061a8383610cfd565b505050565b6000600880549050905090565b61063d610637610cf5565b82610db6565b61067c576040517f08c379a000000000000000000000000000000000000000000000000000000000815260040161067390612bab565b60405180910390fd5b610687838383610e4b565b505050565b6000610697836108cf565b82106106d8576040517f08c379a00000000000000000000000000000000000000000000000000000000081526004016106cf90612c3d565b60405180910390fd5b600660008473ffffffffffffffffffffffffffffffffffffffff1673ffffffffffffffffffffffffffffffffffffffff168152602001908152602001600020600083815260200190815260200160002054905092915050565b61074c83838360405180602001604052806000815250610a6c565b505050565b61076261075c610cf5565b82610db6565b6107a1576040517f08c379a000000000000000000000000000000000000000000000000000000000815260040161079890612bab565b60405180910390fd5b6107aa816110b1565b50565b60006107b761061f565b82106107f8576040517f08c379a00000000000000000000000000000000000000000000000000000000081526004016107ef90612ccf565b60405180910390fd5b6008828154811061080c5761080b612cef565b5b90600052602060002001549050919050565b6000806002600084815260200190815260200160002060009054906101000a900473ffffffffffffffffffffffffffffffffffffffff169050600073ffffffffffffffffffffffffffffffffffffffff168173ffffffffffffffffffffffffffffffffffffffff16036108c6576040517f08c379a00000000000000000000000000000000000000000000000000000000081526004016108bd90612d6a565b60405180910390fd5b80915050919050565b60008073ffffffffffffffffffffffffffffffffffffffff168273ffffffffffffffffffffffffffffffffffffffff160361093f576040517f08c379a000000000000000000000000000000000000000000000000000000000815260040161093690612dfc565b60405180910390fd5b600360008373ffffffffffffffffffffffffffffffffffffffff1673ffffffffffffffffffffffffffffffffffffffff168152602001908152602001600020549050919050565b61098e6110bd565b610998600061113b565b565b6000600b60009054906101000a900473ffffffffffffffffffffffffffffffffffffffff16905090565b6060600180546109d3906129e4565b80601f01602080910402602001604051908101604052809291908181526020018280546109ff906129e4565b8015610a4c5780601f10610a2157610100808354040283529160200191610a4c565b820191906000526020600020905b815481529060010190602001808311610a2f57829003601f168201915b5050505050905090565b610a68610a61610cf5565b8383611201565b5050565b610a7d610a77610cf5565b83610db6565b610abc576040517f08c379a0000000000000000000000000000000000000000000000000000000008152600401610ab390612bab565b60405180910390fd5b610ac88484848461136d565b50505050565b6060610ad9826113c9565b9050919050565b610ae86110bd565b6000610af4600c6114db565b9050610b00600c6114e9565b610b0a83826114ff565b610b14818361151d565b505050565b6000600560008473ffffffffffffffffffffffffffffffffffffffff1673ffffffffffffffffffffffffffffffffffffffff16815260200190815260200160002060008373ffffffffffffffffffffffffffffffffffffffff1673ffffffffffffffffffffffffffffffffffffffff16815260200190815260200160002060009054906101000a900460ff16905092915050565b610bb56110bd565b600073ffffffffffffffffffffffffffffffffffffffff168173ffffffffffffffffffffffffffffffffffffffff1603610c24576040517f08c379a0000000000000000000000000000000000000000000000000000000008152600401610c1b90612e8e565b60405180910390fd5b610c2d8161113b565b50565b60007f780e9d63000000000000000000000000000000000000000000000000000000007bffffffffffffffffffffffffffffffffffffffffffffffffffffffff1916827bffffffffffffffffffffffffffffffffffffffffffffffffffffffff19161480610ca35750610ca28261158a565b5b9050919050565b610cb38161166c565b610cf2576040517f08c379a0000000000000000000000000000000000000000000000000000000008152600401610ce990612d6a565b60405180910390fd5b50565b600033905090565b816004600083815260200190815260200160002060006101000a81548173ffffffffffffffffffffffffffffffffffffffff021916908373ffffffffffffffffffffffffffffffffffffffff160217905550808273ffffffffffffffffffffffffffffffffffffffff16610d708361081e565b73ffffffffffffffffffffffffffffffffffffffff167f8c5be1e5ebec7d5bd14f71427d1e84f3dd0314c0f7b2291e5b200ac8c7c3b92560405160405180910390a45050565b600080610dc28361081e565b90508073ffffffffffffffffffffffffffffffffffffffff168473ffffffffffffffffffffffffffffffffffffffff161480610e045750610e038185610b19565b5b80610e4257508373ffffffffffffffffffffffffffffffffffffffff16610e2a846104c2565b73ffffffffffffffffffffffffffffffffffffffff16145b91505092915050565b8273ffffffffffffffffffffffffffffffffffffffff16610e6b8261081e565b73ffffffffffffffffffffffffffffffffffffffff1614610ec1576040517f08c379a0000000000000000000000000000000000000000000000000000000008152600401610eb890612f20565b60405180910390fd5b600073ffffffffffffffffffffffffffffffffffffffff168273ffffffffffffffffffffffffffffffffffffffff1603610f30576040517f08c379a0000000000000000000000000000000000000000000000000000000008152600401610f2790612fb2565b60405180910390fd5b610f3b8383836116d8565b610f46600082610cfd565b6001600360008573ffffffffffffffffffffffffffffffffffffffff1673ffffffffffffffffffffffffffffffffffffffff1681526020019081526020016000206000828254610f969190613001565b925050819055506001600360008473ffffffffffffffffffffffffffffffffffffffff1673ffffffffffffffffffffffffffffffffffffffff1681526020019081526020016000206000828254610fed9190613035565b92505081905550816002600083815260200190815260200160002060006101000a81548173ffffffffffffffffffffffffffffffffffffffff021916908373ffffffffffffffffffffffffffffffffffffffff160217905550808273ffffffffffffffffffffffffffffffffffffffff168473ffffffffffffffffffffffffffffffffffffffff167fddf252ad1be2c89b69c2b068fc378daa952ba7f163c4a11628f55a4df523b3ef60405160405180910390a46110ac8383836116e8565b505050565b6110ba816116ed565b50565b6110c5610cf5565b73ffffffffffffffffffffffffffffffffffffffff166110e361099a565b73ffffffffffffffffffffffffffffffffffffffff1614611139576040517f08c379a0000000000000000000000000000000000000000000000000000000008152600401611130906130b5565b60405180910390fd5b565b6000600b60009054906101000a900473ffffffffffffffffffffffffffffffffffffffff16905081600b60006101000a81548173ffffffffffffffffffffffffffffffffffffffff021916908373ffffffffffffffffffffffffffffffffffffffff1602179055508173ffffffffffffffffffffffffffffffffffffffff168173ffffffffffffffffffffffffffffffffffffffff167f8be0079c531659141344cd1fd0a4f28419497f9722a3daafe3b4186f6b6457e060405160405180910390a35050565b8173ffffffffffffffffffffffffffffffffffffffff168373ffffffffffffffffffffffffffffffffffffffff160361126f576040517f08c379a000000000000000000000000000000000000000000000000000000000815260040161126690613121565b60405180910390fd5b80600560008573ffffffffffffffffffffffffffffffffffffffff1673ffffffffffffffffffffffffffffffffffffffff16815260200190815260200160002060008473ffffffffffffffffffffffffffffffffffffffff1673ffffffffffffffffffffffffffffffffffffffff16815260200190815260200160002060006101000a81548160ff0219169083151502179055508173ffffffffffffffffffffffffffffffffffffffff168373ffffffffffffffffffffffffffffffffffffffff167f17307eab39ab6107e8899845ad3d59bd9653f200f220920489ca2b5937696c318360405161136091906123b2565b60405180910390a3505050565b611378848484610e4b565b61138484848484611740565b6113c3576040517f08c379a00000000000000000000000000000000000000000000000000000000081526004016113ba906131b3565b60405180910390fd5b50505050565b60606113d482610caa565b6000600a600084815260200190815260200160002080546113f4906129e4565b80601f0160208091040260200160405190810160405280929190818152602001828054611420906129e4565b801561146d5780601f106114425761010080835404028352916020019161146d565b820191906000526020600020905b81548152906001019060200180831161145057829003601f168201915b50505050509050600061147e6118c7565b905060008151036114935781925050506114d6565b6000825111156114c85780826040516020016114b092919061320f565b604051602081830303815290604052925050506114d6565b6114d1846118de565b925050505b919050565b600081600001549050919050565b6001816000016000828254019250508190555050565b611519828260405180602001604052806000815250611946565b5050565b6115268261166c565b611565576040517f08c379a000000000000000000000000000000000000000000000000000000000815260040161155c906132a5565b60405180910390fd5b80600a600084815260200190815260200160002090816115859190613471565b505050565b60007f80ac58cd000000000000000000000000000000000000000000000000000000007bffffffffffffffffffffffffffffffffffffffffffffffffffffffff1916827bffffffffffffffffffffffffffffffffffffffffffffffffffffffff1916148061165557507f5b5e139f000000000000000000000000000000000000000000000000000000007bffffffffffffffffffffffffffffffffffffffffffffffffffffffff1916827bffffffffffffffffffffffffffffffffffffffffffffffffffffffff1916145b806116655750611664826119a1565b5b9050919050565b60008073ffffffffffffffffffffffffffffffffffffffff166002600084815260200190815260200160002060009054906101000a900473ffffffffffffffffffffffffffffffffffffffff1673ffffffffffffffffffffffffffffffffffffffff1614159050919050565b6116e3838383611a0b565b505050565b505050565b6116f681611b1d565b6000600a60008381526020019081526020016000208054611716906129e4565b90501461173d57600a6000828152602001908152602001600020600061173c91906122a1565b5b50565b60006117618473ffffffffffffffffffffffffffffffffffffffff16611c3a565b156118ba578373ffffffffffffffffffffffffffffffffffffffff1663150b7a0261178a610cf5565b8786866040518563ffffffff1660e01b81526004016117ac9493929190613598565b6020604051808303816000875af19250505080156117e857506040513d601f19601f820116820180604052508101906117e591906135f9565b60015b61186a573d8060008114611818576040519150601f19603f3d011682016040523d82523d6000602084013e61181d565b606091505b506000815103611862576040517f08c379a0000000000000000000000000000000000000000000000000000000008152600401611859906131b3565b60405180910390fd5b805181602001fd5b63150b7a0260e01b7bffffffffffffffffffffffffffffffffffffffffffffffffffffffff1916817bffffffffffffffffffffffffffffffffffffffffffffffffffffffff1916149150506118bf565b600190505b949350505050565b606060405180602001604052806000815250905090565b60606118e982610caa565b60006118f36118c7565b90506000815111611913576040518060200160405280600081525061193e565b8061191d84611c5d565b60405160200161192e92919061320f565b6040516020818303038152906040525b915050919050565b6119508383611dbd565b61195d6000848484611740565b61199c576040517f08c379a0000000000000000000000000000000000000000000000000000000008152600401611993906131b3565b60405180910390fd5b505050565b60007f01ffc9a7000000000000000000000000000000000000000000000000000000007bffffffffffffffffffffffffffffffffffffffffffffffffffffffff1916827bffffffffffffffffffffffffffffffffffffffffffffffffffffffff1916149050919050565b611a16838383611f96565b600073ffffffffffffffffffffffffffffffffffffffff168373ffffffffffffffffffffffffffffffffffffffff1603611a5857611a5381611f9b565b611a97565b8173ffffffffffffffffffffffffffffffffffffffff168373ffffffffffffffffffffffffffffffffffffffff1614611a9657611a958382611fe4565b5b5b600073ffffffffffffffffffffffffffffffffffffffff168273ffffffffffffffffffffffffffffffffffffffff1603611ad957611ad481612151565b611b18565b8273ffffffffffffffffffffffffffffffffffffffff168273ffffffffffffffffffffffffffffffffffffffff1614611b1757611b168282612222565b5b5b505050565b6000611b288261081e565b9050611b36816000846116d8565b611b41600083610cfd565b6001600360008373ffffffffffffffffffffffffffffffffffffffff1673ffffffffffffffffffffffffffffffffffffffff1681526020019081526020016000206000828254611b919190613001565b925050819055506002600083815260200190815260200160002060006101000a81549073ffffffffffffffffffffffffffffffffffffffff021916905581600073ffffffffffffffffffffffffffffffffffffffff168273ffffffffffffffffffffffffffffffffffffffff167fddf252ad1be2c89b69c2b068fc378daa952ba7f163c4a11628f55a4df523b3ef60405160405180910390a4611c36816000846116e8565b5050565b6000808273ffffffffffffffffffffffffffffffffffffffff163b119050919050565b606060008203611ca4576040518060400160405280600181526020017f30000000000000000000000000000000000000000000000000000000000000008152509050611db8565b600082905060005b60008214611cd6578080611cbf90613626565b915050600a82611ccf919061369d565b9150611cac565b60008167ffffffffffffffff811115611cf257611cf16126ca565b5b6040519080825280601f01601f191660200182016040528015611d245781602001600182028036833780820191505090505b5090505b60008514611db157600182611d3d9190613001565b9150600a85611d4c91906136ce565b6030611d589190613035565b60f81b818381518110611d6e57611d6d612cef565b5b60200101907effffffffffffffffffffffffffffffffffffffffffffffffffffffffffffff1916908160001a905350600a85611daa919061369d565b9450611d28565b8093505050505b919050565b600073ffffffffffffffffffffffffffffffffffffffff168273ffffffffffffffffffffffffffffffffffffffff1603611e2c576040517f08c379a0000000000000000000000000000000000000000000000000000000008152600401611e239061374b565b60405180910390fd5b611e358161166c565b15611e75576040517f08c379a0000000000000000000000000000000000000000000000000000000008152600401611e6c906137b7565b60405180910390fd5b611e81600083836116d8565b6001600360008473ffffffffffffffffffffffffffffffffffffffff1673ffffffffffffffffffffffffffffffffffffffff1681526020019081526020016000206000828254611ed19190613035565b92505081905550816002600083815260200190815260200160002060006101000a81548173ffffffffffffffffffffffffffffffffffffffff021916908373ffffffffffffffffffffffffffffffffffffffff160217905550808273ffffffffffffffffffffffffffffffffffffffff16600073ffffffffffffffffffffffffffffffffffffffff167fddf252ad1be2c89b69c2b068fc378daa952ba7f163c4a11628f55a4df523b3ef60405160405180910390a4611f92600083836116e8565b5050565b505050565b6008805490506009600083815260200190815260200160002081905550600881908060018154018082558091505060019003906000526020600020016000909190919091505550565b60006001611ff1846108cf565b611ffb9190613001565b90506000600760008481526020019081526020016000205490508181146120e0576000600660008673ffffffffffffffffffffffffffffffffffffffff1673ffffffffffffffffffffffffffffffffffffffff168152602001908152602001600020600084815260200190815260200160002054905080600660008773ffffffffffffffffffffffffffffffffffffffff1673ffffffffffffffffffffffffffffffffffffffff168152602001908152602001600020600084815260200190815260200160002081905550816007600083815260200190815260200160002081905550505b6007600084815260200190815260200160002060009055600660008573ffffffffffffffffffffffffffffffffffffffff1673ffffffffffffffffffffffffffffffffffffffff16815260200190815260200160002060008381526020019081526020016000206000905550505050565b600060016008805490506121659190613001565b905060006009600084815260200190815260200160002054905060006008838154811061219557612194612cef565b5b9060005260206000200154905080600883815481106121b7576121b6612cef565b5b906000526020600020018190555081600960008381526020019081526020016000208190555060096000858152602001908152602001600020600090556008805480612206576122056137d7565b5b6001900381819060005260206000200160009055905550505050565b600061222d836108cf565b905081600660008573ffffffffffffffffffffffffffffffffffffffff1673ffffffffffffffffffffffffffffffffffffffff168152602001908152602001600020600083815260200190815260200160002081905550806007600084815260200190815260200160002081905550505050565b5080546122ad906129e4565b6000825580601f106122bf57506122de565b601f0160209004906000526020600020908101906122dd91906122e1565b5b50565b5b808211156122fa5760008160009055506001016122e2565b5090565b6000604051905090565b600080fd5b600080fd5b60007fffffffff0000000000000000000000000000000000000000000000000000000082169050919050565b61234781612312565b811461235257600080fd5b50565b6000813590506123648161233e565b92915050565b6000602082840312156123805761237f612308565b5b600061238e84828501612355565b91505092915050565b60008115159050919050565b6123ac81612397565b82525050565b60006020820190506123c760008301846123a3565b92915050565b600081519050919050565b600082825260208201905092915050565b60005b838110156124075780820151818401526020810190506123ec565b60008484015250505050565b6000601f19601f8301169050919050565b600061242f826123cd565b61243981856123d8565b93506124498185602086016123e9565b61245281612413565b840191505092915050565b600060208201905081810360008301526124778184612424565b905092915050565b6000819050919050565b6124928161247f565b811461249d57600080fd5b50565b6000813590506124af81612489565b92915050565b6000602082840312156124cb576124ca612308565b5b60006124d9848285016124a0565b91505092915050565b600073ffffffffffffffffffffffffffffffffffffffff82169050919050565b600061250d826124e2565b9050919050565b61251d81612502565b82525050565b60006020820190506125386000830184612514565b92915050565b61254781612502565b811461255257600080fd5b50565b6000813590506125648161253e565b92915050565b6000806040838503121561258157612580612308565b5b600061258f85828601612555565b92505060206125a0858286016124a0565b9150509250929050565b6125b38161247f565b82525050565b60006020820190506125ce60008301846125aa565b92915050565b6000806000606084860312156125ed576125ec612308565b5b60006125fb86828701612555565b935050602061260c86828701612555565b925050604061261d868287016124a0565b9150509250925092565b60006020828403121561263d5761263c612308565b5b600061264b84828501612555565b91505092915050565b61265d81612397565b811461266857600080fd5b50565b60008135905061267a81612654565b92915050565b6000806040838503121561269757612696612308565b5b60006126a585828601612555565b92505060206126b68582860161266b565b9150509250929050565b600080fd5b600080fd5b7f4e487b7100000000000000000000000000000000000000000000000000000000600052604160045260246000fd5b61270282612413565b810181811067ffffffffffffffff82111715612721576127206126ca565b5b80604052505050565b60006127346122fe565b905061274082826126f9565b919050565b600067ffffffffffffffff8211156127605761275f6126ca565b5b61276982612413565b9050602081019050919050565b82818337600083830152505050565b600061279861279384612745565b61272a565b9050828152602081018484840111156127b4576127b36126c5565b5b6127bf848285612776565b509392505050565b600082601f8301126127dc576127db6126c0565b5b81356127ec848260208601612785565b91505092915050565b6000806000806080858703121561280f5761280e612308565b5b600061281d87828801612555565b945050602061282e87828801612555565b935050604061283f878288016124a0565b925050606085013567ffffffffffffffff8111156128605761285f61230d565b5b61286c878288016127c7565b91505092959194509250565b600067ffffffffffffffff821115612893576128926126ca565b5b61289c82612413565b9050602081019050919050565b60006128bc6128b784612878565b61272a565b9050828152602081018484840111156128d8576128d76126c5565b5b6128e3848285612776565b509392505050565b600082601f830112612900576128ff6126c0565b5b81356129108482602086016128a9565b91505092915050565b600080604083850312156129305761292f612308565b5b600061293e85828601612555565b925050602083013567ffffffffffffffff81111561295f5761295e61230d565b5b61296b858286016128eb565b9150509250929050565b6000806040838503121561298c5761298b612308565b5b600061299a85828601612555565b92505060206129ab85828601612555565b9150509250929050565b7f4e487b7100000000000000000000000000000000000000000000000000000000600052602260045260246000fd5b600060028204905060018216806129fc57607f821691505b602082108103612a0f57612a0e6129b5565b5b50919050565b7f4552433732313a20617070726f76616c20746f2063757272656e74206f776e6560008201527f7200000000000000000000000000000000000000000000000000000000000000602082015250565b6000612a716021836123d8565b9150612a7c82612a15565b604082019050919050565b60006020820190508181036000830152612aa081612a64565b9050919050565b7f4552433732313a20617070726f76652063616c6c6572206973206e6f7420746f60008201527f6b656e206f776e6572206e6f7220617070726f76656420666f7220616c6c0000602082015250565b6000612b03603e836123d8565b9150612b0e82612aa7565b604082019050919050565b60006020820190508181036000830152612b3281612af6565b9050919050565b7f4552433732313a2063616c6c6572206973206e6f7420746f6b656e206f776e6560008201527f72206e6f7220617070726f766564000000000000000000000000000000000000602082015250565b6000612b95602e836123d8565b9150612ba082612b39565b604082019050919050565b60006020820190508181036000830152612bc481612b88565b9050919050565b7f455243373231456e756d657261626c653a206f776e657220696e646578206f7560008201527f74206f6620626f756e6473000000000000000000000000000000000000000000602082015250565b6000612c27602b836123d8565b9150612c3282612bcb565b604082019050919050565b60006020820190508181036000830152612c5681612c1a565b9050919050565b7f455243373231456e756d657261626c653a20676c6f62616c20696e646578206f60008201527f7574206f6620626f756e64730000000000000000000000000000000000000000602082015250565b6000612cb9602c836123d8565b9150612cc482612c5d565b604082019050919050565b60006020820190508181036000830152612ce881612cac565b9050919050565b7f4e487b7100000000000000000000000000000000000000000000000000000000600052603260045260246000fd5b7f4552433732313a20696e76616c696420746f6b656e2049440000000000000000600082015250565b6000612d546018836123d8565b9150612d5f82612d1e565b602082019050919050565b60006020820190508181036000830152612d8381612d47565b9050919050565b7f4552433732313a2061646472657373207a65726f206973206e6f74206120766160008201527f6c6964206f776e65720000000000000000000000000000000000000000000000602082015250565b6000612de66029836123d8565b9150612df182612d8a565b604082019050919050565b60006020820190508181036000830152612e1581612dd9565b9050919050565b7f4f776e61626c653a206e6577206f776e657220697320746865207a65726f206160008201527f6464726573730000000000000000000000000000000000000000000000000000602082015250565b6000612e786026836123d8565b9150612e8382612e1c565b604082019050919050565b60006020820190508181036000830152612ea781612e6b565b9050919050565b7f4552433732313a207472616e736665722066726f6d20696e636f72726563742060008201527f6f776e6572000000000000000000000000000000000000000000000000000000602082015250565b6000612f0a6025836123d8565b9150612f1582612eae565b604082019050919050565b60006020820190508181036000830152612f3981612efd565b9050919050565b7f4552433732313a207472616e7366657220746f20746865207a65726f2061646460008201527f7265737300000000000000000000000000000000000000000000000000000000602082015250565b6000612f9c6024836123d8565b9150612fa782612f40565b604082019050919050565b60006020820190508181036000830152612fcb81612f8f565b9050919050565b7f4e487b7100000000000000000000000000000000000000000000000000000000600052601160045260246000fd5b600061300c8261247f565b91506130178361247f565b925082820390508181111561302f5761302e612fd2565b5b92915050565b60006130408261247f565b915061304b8361247f565b925082820190508082111561306357613062612fd2565b5b92915050565b7f4f776e61626c653a2063616c6c6572206973206e6f7420746865206f776e6572600082015250565b600061309f6020836123d8565b91506130aa82613069565b602082019050919050565b600060208201905081810360008301526130ce81613092565b9050919050565b7f4552433732313a20617070726f766520746f2063616c6c657200000000000000600082015250565b600061310b6019836123d8565b9150613116826130d5565b602082019050919050565b6000602082019050818103600083015261313a816130fe565b9050919050565b7f4552433732313a207472616e7366657220746f206e6f6e20455243373231526560008201527f63656976657220696d706c656d656e7465720000000000000000000000000000602082015250565b600061319d6032836123d8565b91506131a882613141565b604082019050919050565b600060208201905081810360008301526131cc81613190565b9050919050565b600081905092915050565b60006131e9826123cd565b6131f381856131d3565b93506132038185602086016123e9565b80840191505092915050565b600061321b82856131de565b915061322782846131de565b91508190509392505050565b7f45524337323155524953746f726167653a2055524920736574206f66206e6f6e60008201527f6578697374656e7420746f6b656e000000000000000000000000000000000000602082015250565b600061328f602e836123d8565b915061329a82613233565b604082019050919050565b600060208201905081810360008301526132be81613282565b9050919050565b60008190508160005260206000209050919050565b60006020601f8301049050919050565b600082821b905092915050565b6000600883026133277fffffffffffffffffffffffffffffffffffffffffffffffffffffffffffffffff826132ea565b61333186836132ea565b95508019841693508086168417925050509392505050565b6000819050919050565b600061336e6133696133648461247f565b613349565b61247f565b9050919050565b6000819050919050565b61338883613353565b61339c61339482613375565b8484546132f7565b825550505050565b600090565b6133b16133a4565b6133bc81848461337f565b505050565b5b818110156133e0576133d56000826133a9565b6001810190506133c2565b5050565b601f821115613425576133f6816132c5565b6133ff846132da565b8101602085101561340e578190505b61342261341a856132da565b8301826133c1565b50505b505050565b600082821c905092915050565b60006134486000198460080261342a565b1980831691505092915050565b60006134618383613437565b9150826002028217905092915050565b61347a826123cd565b67ffffffffffffffff811115613493576134926126ca565b5b61349d82546129e4565b6134a88282856133e4565b600060209050601f8311600181146134db57600084156134c9578287015190505b6134d38582613455565b86555061353b565b601f1984166134e9866132c5565b60005b82811015613511578489015182556001820191506020850194506020810190506134ec565b8683101561352e578489015161352a601f891682613437565b8355505b6001600288020188555050505b505050505050565b600081519050919050565b600082825260208201905092915050565b600061356a82613543565b613574818561354e565b93506135848185602086016123e9565b61358d81612413565b840191505092915050565b60006080820190506135ad6000830187612514565b6135ba6020830186612514565b6135c760408301856125aa565b81810360608301526135d9818461355f565b905095945050505050565b6000815190506135f38161233e565b92915050565b60006020828403121561360f5761360e612308565b5b600061361d848285016135e4565b91505092915050565b60006136318261247f565b91507fffffffffffffffffffffffffffffffffffffffffffffffffffffffffffffffff820361366357613662612fd2565b5b600182019050919050565b7f4e487b7100000000000000000000000000000000000000000000000000000000600052601260045260246000fd5b60006136a88261247f565b91506136b38361247f565b9250826136c3576136c261366e565b5b828204905092915050565b60006136d98261247f565b91506136e48361247f565b9250826136f4576136f361366e565b5b828206905092915050565b7f4552433732313a206d696e7420746f20746865207a65726f2061646472657373600082015250565b60006137356020836123d8565b9150613740826136ff565b602082019050919050565b6000602082019050818103600083015261376481613728565b9050919050565b7f4552433732313a20746f6b656e20616c7265616479206d696e74656400000000600082015250565b60006137a1601c836123d8565b91506137ac8261376b565b602082019050919050565b600060208201905081810360008301526137d081613794565b9050919050565b7f4e487b7100000000000000000000000000000000000000000000000000000000600052603160045260246000fdfea264697066735822122005029b5ecd3e87d5b7768ba0c8c28f290c897d4521d4397afdbfe24e448fea6d64736f6c63430008110033",
  "linkReferences": {},
  "deployedLinkReferences": {}
}