{
  "_format": "hh-sol-artifact-1",
  "contractName": "PMToken",
  "sourceName": "contracts/PMToken.sol",
  "abi": [
    {
      "inputs": [],
      "stateMutability": "nonpayable",
      "type": "constructor"
    },
    {
      "anonymous": false,
      "inputs": [
        {
          "indexed": true,
          "internalType": "address",
          "name": "owner",
          "type": "address"
        },
        {
          "indexed": true,
          "internalType": "address",
          "name": "approved",
          "type": "address"
        },
        {
          "indexed": true,
          "internalType": "uint256",
          "name": "tokenId",
          "type": "uint256"
        }
      ],
      "name": "Approval",
      "type": "event"
    },
    {
      "anonymous": false,
      "inputs": [
        {
          "indexed": true,
          "internalType": "address",
          "name": "owner",
          "type": "address"
        },
        {
          "indexed": true,
          "internalType": "address",
          "name": "operator",
          "type": "address"
        },
        {
          "indexed": false,
          "internalType": "bool",
          "name": "approved",
          "type": "bool"
        }
      ],
      "name": "ApprovalForAll",
      "type": "event"
    },
    {
      "anonymous": false,
      "inputs": [
        {
          "indexed": true,
          "internalType": "address",
          "name": "previousOwner",
          "type": "address"
        },
        {
          "indexed": true,
          "internalType": "address",
          "name": "newOwner",
          "type": "address"
        }
      ],
      "name": "OwnershipTransferred",
      "type": "event"
    },
    {
      "anonymous": false,
      "inputs": [
        {
          "indexed": true,
          "internalType": "address",
          "name": "from",
          "type": "address"
        },
        {
          "indexed": true,
          "internalType": "address",
          "name": "to",
          "type": "address"
        },
        {
          "indexed": true,
          "internalType": "uint256",
          "name": "tokenId",
          "type": "uint256"
        }
      ],
      "name": "Transfer",
      "type": "event"
    },
    {
      "inputs": [
        {
          "internalType": "uint256",
          "name": "",
          "type": "uint256"
        }
      ],
      "name": "_balancePerToken",
      "outputs": [
        {
          "internalType": "uint256",
          "name": "",
          "type": "uint256"
        }
      ],
      "stateMutability": "view",
      "type": "function"
    },
    {
      "inputs": [],
      "name": "_distributeNum",
      "outputs": [
        {
          "internalType": "uint256",
          "name": "",
          "type": "uint256"
        }
      ],
      "stateMutability": "view",
      "type": "function"
    },
    {
      "inputs": [
        {
          "internalType": "address",
          "name": "to",
          "type": "address"
        },
        {
          "internalType": "uint256",
          "name": "tokenId",
          "type": "uint256"
        }
      ],
      "name": "approve",
      "outputs": [],
      "stateMutability": "nonpayable",
      "type": "function"
    },
    {
      "inputs": [
        {
          "internalType": "address",
          "name": "owner",
          "type": "address"
        }
      ],
      "name": "balanceOf",
      "outputs": [
        {
          "internalType": "uint256",
          "name": "",
          "type": "uint256"
        }
      ],
      "stateMutability": "view",
      "type": "function"
    },
    {
      "inputs": [
        {
          "internalType": "uint256",
          "name": "tokenId",
          "type": "uint256"
        }
      ],
      "name": "burn",
      "outputs": [],
      "stateMutability": "nonpayable",
      "type": "function"
    },
    {
      "inputs": [
        {
          "internalType": "uint256",
          "name": "tokenId",
          "type": "uint256"
        }
      ],
      "name": "contentURI",
      "outputs": [
        {
          "internalType": "string",
          "name": "",
          "type": "string"
        }
      ],
      "stateMutability": "view",
      "type": "function"
    },
    {
      "inputs": [
        {
          "internalType": "uint256",
          "name": "tokenId",
          "type": "uint256"
        }
      ],
      "name": "donateToToken",
      "outputs": [],
      "stateMutability": "payable",
      "type": "function"
    },
    {
      "inputs": [
        {
          "internalType": "uint256",
          "name": "tokenId",
          "type": "uint256"
        }
      ],
      "name": "estimateEarn",
      "outputs": [
        {
          "internalType": "uint256",
          "name": "",
          "type": "uint256"
        }
      ],
      "stateMutability": "view",
      "type": "function"
    },
    {
      "inputs": [
        {
          "internalType": "uint256",
          "name": "tokenId",
          "type": "uint256"
        }
      ],
      "name": "getApproved",
      "outputs": [
        {
          "internalType": "address",
          "name": "",
          "type": "address"
        }
      ],
      "stateMutability": "view",
      "type": "function"
    },
    {
      "inputs": [],
      "name": "getBalance",
      "outputs": [
        {
          "internalType": "uint256",
          "name": "",
          "type": "uint256"
        }
      ],
      "stateMutability": "view",
      "type": "function"
    },
    {
      "inputs": [
        {
          "internalType": "uint256",
          "name": "tokenId",
          "type": "uint256"
        }
      ],
      "name": "getBalanceOfToken",
      "outputs": [
        {
          "internalType": "uint256",
          "name": "",
          "type": "uint256"
        }
      ],
      "stateMutability": "view",
      "type": "function"
    },
    {
      "inputs": [
        {
          "internalType": "address",
          "name": "owner",
          "type": "address"
        },
        {
          "internalType": "address",
          "name": "operator",
          "type": "address"
        }
      ],
      "name": "isApprovedForAll",
      "outputs": [
        {
          "internalType": "bool",
          "name": "",
          "type": "bool"
        }
      ],
      "stateMutability": "view",
      "type": "function"
    },
    {
      "inputs": [
        {
          "internalType": "address",
          "name": "",
          "type": "address"
        },
        {
          "internalType": "uint256",
          "name": "",
          "type": "uint256"
        }
      ],
      "name": "lockTimeOfToken",
      "outputs": [
        {
          "internalType": "uint256",
          "name": "",
          "type": "uint256"
        }
      ],
      "stateMutability": "view",
      "type": "function"
    },
    {
      "inputs": [],
      "name": "name",
      "outputs": [
        {
          "internalType": "string",
          "name": "",
          "type": "string"
        }
      ],
      "stateMutability": "view",
      "type": "function"
    },
    {
      "inputs": [],
      "name": "owner",
      "outputs": [
        {
          "internalType": "address",
          "name": "",
          "type": "address"
        }
      ],
      "stateMutability": "view",
      "type": "function"
    },
    {
      "inputs": [
        {
          "internalType": "uint256",
          "name": "tokenId",
          "type": "uint256"
        }
      ],
      "name": "ownerOf",
      "outputs": [
        {
          "internalType": "address",
          "name": "",
          "type": "address"
        }
      ],
      "stateMutability": "view",
      "type": "function"
    },
    {
      "inputs": [],
      "name": "renounceOwnership",
      "outputs": [],
      "stateMutability": "nonpayable",
      "type": "function"
    },
    {
      "inputs": [
        {
          "internalType": "address",
          "name": "to",
          "type": "address"
        },
        {
          "internalType": "string",
          "name": "uri",
          "type": "string"
        }
      ],
      "name": "safeMint",
      "outputs": [],
      "stateMutability": "nonpayable",
      "type": "function"
    },
    {
      "inputs": [
        {
          "internalType": "address",
          "name": "from",
          "type": "address"
        },
        {
          "internalType": "address",
          "name": "to",
          "type": "address"
        },
        {
          "internalType": "uint256",
          "name": "tokenId",
          "type": "uint256"
        }
      ],
      "name": "safeTransferFrom",
      "outputs": [],
      "stateMutability": "nonpayable",
      "type": "function"
    },
    {
      "inputs": [
        {
          "internalType": "address",
          "name": "from",
          "type": "address"
        },
        {
          "internalType": "address",
          "name": "to",
          "type": "address"
        },
        {
          "internalType": "uint256",
          "name": "tokenId",
          "type": "uint256"
        },
        {
          "internalType": "bytes",
          "name": "data",
          "type": "bytes"
        }
      ],
      "name": "safeTransferFrom",
      "outputs": [],
      "stateMutability": "nonpayable",
      "type": "function"
    },
    {
      "inputs": [
        {
          "internalType": "address",
          "name": "operator",
          "type": "address"
        },
        {
          "internalType": "bool",
          "name": "approved",
          "type": "bool"
        }
      ],
      "name": "setApprovalForAll",
      "outputs": [],
      "stateMutability": "nonpayable",
      "type": "function"
    },
    {
      "inputs": [
        {
          "internalType": "uint256",
          "name": "tokenId",
          "type": "uint256"
        },
        {
          "internalType": "string",
          "name": "_contentURI",
          "type": "string"
        }
      ],
      "name": "setContentURI",
      "outputs": [],
      "stateMutability": "payable",
      "type": "function"
    },
    {
      "inputs": [
        {
          "internalType": "uint256",
          "name": "num",
          "type": "uint256"
        }
      ],
      "name": "setDistoributeNum",
      "outputs": [],
      "stateMutability": "nonpayable",
      "type": "function"
    },
    {
      "inputs": [
        {
          "internalType": "bytes4",
          "name": "interfaceId",
          "type": "bytes4"
        }
      ],
      "name": "supportsInterface",
      "outputs": [
        {
          "internalType": "bool",
          "name": "",
          "type": "bool"
        }
      ],
      "stateMutability": "view",
      "type": "function"
    },
    {
      "inputs": [],
      "name": "symbol",
      "outputs": [
        {
          "internalType": "string",
          "name": "",
          "type": "string"
        }
      ],
      "stateMutability": "view",
      "type": "function"
    },
    {
      "inputs": [
        {
          "internalType": "uint256",
          "name": "index",
          "type": "uint256"
        }
      ],
      "name": "tokenByIndex",
      "outputs": [
        {
          "internalType": "uint256",
          "name": "",
          "type": "uint256"
        }
      ],
      "stateMutability": "view",
      "type": "function"
    },
    {
      "inputs": [
        {
          "internalType": "address",
          "name": "owner",
          "type": "address"
        },
        {
          "internalType": "uint256",
          "name": "index",
          "type": "uint256"
        }
      ],
      "name": "tokenOfOwnerByIndex",
      "outputs": [
        {
          "internalType": "uint256",
          "name": "",
          "type": "uint256"
        }
      ],
      "stateMutability": "view",
      "type": "function"
    },
    {
      "inputs": [
        {
          "internalType": "uint256",
          "name": "tokenId",
          "type": "uint256"
        }
      ],
      "name": "tokenURI",
      "outputs": [
        {
          "internalType": "string",
          "name": "",
          "type": "string"
        }
      ],
      "stateMutability": "view",
      "type": "function"
    },
    {
      "inputs": [],
      "name": "totalSupply",
      "outputs": [
        {
          "internalType": "uint256",
          "name": "",
          "type": "uint256"
        }
      ],
      "stateMutability": "view",
      "type": "function"
    },
    {
      "inputs": [
        {
          "internalType": "address",
          "name": "from",
          "type": "address"
        },
        {
          "internalType": "address",
          "name": "to",
          "type": "address"
        },
        {
          "internalType": "uint256",
          "name": "tokenId",
          "type": "uint256"
        }
      ],
      "name": "transferFrom",
      "outputs": [],
      "stateMutability": "nonpayable",
      "type": "function"
    },
    {
      "inputs": [
        {
          "internalType": "address",
          "name": "newOwner",
          "type": "address"
        }
      ],
      "name": "transferOwnership",
      "outputs": [],
      "stateMutability": "nonpayable",
      "type": "function"
    },
    {
      "inputs": [
        {
          "internalType": "uint256",
          "name": "tokenId",
          "type": "uint256"
        }
      ],
      "name": "withdrawFromToken",
      "outputs": [],
      "stateMutability": "payable",
      "type": "function"
    }
  ],
  "bytecode": "0x60806040523480156200001157600080fd5b506040518060400160405280600781526020017f504d546f6b656e000000000000000000000000000000000000000000000000008152506040518060400160405280600381526020017f504d54000000000000000000000000000000000000000000000000000000000081525081600090816200008f91906200041a565b508060019081620000a191906200041a565b505050620000c4620000b8620000d260201b60201c565b620000da60201b60201c565b6064600e8190555062000501565b600033905090565b6000600b60009054906101000a900473ffffffffffffffffffffffffffffffffffffffff16905081600b60006101000a81548173ffffffffffffffffffffffffffffffffffffffff021916908373ffffffffffffffffffffffffffffffffffffffff1602179055508173ffffffffffffffffffffffffffffffffffffffff168173ffffffffffffffffffffffffffffffffffffffff167f8be0079c531659141344cd1fd0a4f28419497f9722a3daafe3b4186f6b6457e060405160405180910390a35050565b600081519050919050565b7f4e487b7100000000000000000000000000000000000000000000000000000000600052604160045260246000fd5b7f4e487b7100000000000000000000000000000000000000000000000000000000600052602260045260246000fd5b600060028204905060018216806200022257607f821691505b602082108103620002385762000237620001da565b5b50919050565b60008190508160005260206000209050919050565b60006020601f8301049050919050565b600082821b905092915050565b600060088302620002a27fffffffffffffffffffffffffffffffffffffffffffffffffffffffffffffffff8262000263565b620002ae868362000263565b95508019841693508086168417925050509392505050565b6000819050919050565b6000819050919050565b6000620002fb620002f5620002ef84620002c6565b620002d0565b620002c6565b9050919050565b6000819050919050565b6200031783620002da565b6200032f620003268262000302565b84845462000270565b825550505050565b600090565b6200034662000337565b620003538184846200030c565b505050565b5b818110156200037b576200036f6000826200033c565b60018101905062000359565b5050565b601f821115620003ca5762000394816200023e565b6200039f8462000253565b81016020851015620003af578190505b620003c7620003be8562000253565b83018262000358565b50505b505050565b600082821c905092915050565b6000620003ef60001984600802620003cf565b1980831691505092915050565b60006200040a8383620003dc565b9150826002028217905092915050565b6200042582620001a0565b67ffffffffffffffff811115620004415762000440620001ab565b5b6200044d825462000209565b6200045a8282856200037f565b600060209050601f8311600181146200049257600084156200047d578287015190505b620004898582620003fc565b865550620004f9565b601f198416620004a2866200023e565b60005b82811015620004cc57848901518255600182019150602085019450602081019050620004a5565b86831015620004ec5784890151620004e8601f891682620003dc565b8355505b6001600288020188555050505b505050505050565b6147fd80620005116000396000f3fe6080604052600436106101e35760003560e01c80636cd2322911610102578063a60d012611610095578063e985e9c511610064578063e985e9c514610720578063eb981fea1461075d578063f22b5b0714610779578063f2fde38b146107b6576101e3565b8063a60d012614610666578063b88d4fde14610691578063c87b56dd146106ba578063d204c45e146106f7576101e3565b80638da5cb5b116100d15780638da5cb5b146105cb57806390e8e64b146105f657806395d89b4114610612578063a22cb4651461063d576101e3565b80636cd23229146104fd5780636e667c351461053a57806370a0823114610577578063715018a6146105b4576101e3565b806323b872dd1161017a5780634def0453116101495780634def04531461042a5780634f6ccce7146104465780636352211e1461048357806368e58a2a146104c0576101e3565b806323b872dd146103725780632f745c591461039b57806342842e0e146103d857806342966c6814610401576101e3565b8063095ea7b3116101b6578063095ea7b3146102b65780630f185936146102df57806312065fe01461031c57806318160ddd14610347576101e3565b806301ffc9a7146101e857806306fdde031461022557806307c70d8014610250578063081812fc14610279575b600080fd5b3480156101f457600080fd5b5061020f600480360381019061020a9190612e25565b6107df565b60405161021c9190612e6d565b60405180910390f35b34801561023157600080fd5b5061023a6107f1565b6040516102479190612f18565b60405180910390f35b34801561025c57600080fd5b5061027760048036038101906102729190612f70565b610883565b005b34801561028557600080fd5b506102a0600480360381019061029b9190612f70565b6108d8565b6040516102ad9190612fde565b60405180910390f35b3480156102c257600080fd5b506102dd60048036038101906102d89190613025565b61091e565b005b3480156102eb57600080fd5b5061030660048036038101906103019190612f70565b610a35565b6040516103139190613074565b60405180910390f35b34801561032857600080fd5b50610331610a9a565b60405161033e9190613074565b60405180910390f35b34801561035357600080fd5b5061035c610aa2565b6040516103699190613074565b60405180910390f35b34801561037e57600080fd5b506103996004803603810190610394919061308f565b610aaf565b005b3480156103a757600080fd5b506103c260048036038101906103bd9190613025565b610b0f565b6040516103cf9190613074565b60405180910390f35b3480156103e457600080fd5b506103ff60048036038101906103fa919061308f565b610bb4565b005b34801561040d57600080fd5b5061042860048036038101906104239190612f70565b610bd4565b005b610444600480360381019061043f9190613217565b610c30565b005b34801561045257600080fd5b5061046d60048036038101906104689190612f70565b610d42565b60405161047a9190613074565b60405180910390f35b34801561048f57600080fd5b506104aa60048036038101906104a59190612f70565b610db3565b6040516104b79190612fde565b60405180910390f35b3480156104cc57600080fd5b506104e760048036038101906104e29190613025565b610e64565b6040516104f49190613074565b60405180910390f35b34801561050957600080fd5b50610524600480360381019061051f9190612f70565b610e89565b6040516105319190613074565b60405180910390f35b34801561054657600080fd5b50610561600480360381019061055c9190612f70565b610eb3565b60405161056e9190612f18565b60405180910390f35b34801561058357600080fd5b5061059e60048036038101906105999190613273565b610f62565b6040516105ab9190613074565b60405180910390f35b3480156105c057600080fd5b506105c9611019565b005b3480156105d757600080fd5b506105e061102d565b6040516105ed9190612fde565b60405180910390f35b610610600480360381019061060b9190612f70565b611057565b005b34801561061e57600080fd5b506106276110ab565b6040516106349190612f18565b60405180910390f35b34801561064957600080fd5b50610664600480360381019061065f91906132cc565b61113d565b005b34801561067257600080fd5b5061067b611153565b6040516106889190613074565b60405180910390f35b34801561069d57600080fd5b506106b860048036038101906106b391906133ad565b611159565b005b3480156106c657600080fd5b506106e160048036038101906106dc9190612f70565b6111bb565b6040516106ee9190612f18565b60405180910390f35b34801561070357600080fd5b5061071e60048036038101906107199190613430565b6111cd565b005b34801561072c57600080fd5b506107476004803603810190610742919061348c565b611206565b6040516107549190612e6d565b60405180910390f35b61077760048036038101906107729190612f70565b61129a565b005b34801561078557600080fd5b506107a0600480360381019061079b9190612f70565b611496565b6040516107ad9190613074565b60405180910390f35b3480156107c257600080fd5b506107dd60048036038101906107d89190613273565b6114ae565b005b60006107ea82611531565b9050919050565b606060008054610800906134fb565b80601f016020809104026020016040519081016040528092919081815260200182805461082c906134fb565b80156108795780601f1061084e57610100808354040283529160200191610879565b820191906000526020600020905b81548152906001019060200180831161085c57829003601f168201915b5050505050905090565b61088b6115ab565b600081116108ce576040517f08c379a00000000000000000000000000000000000000000000000000000000081526004016108c590613578565b60405180910390fd5b80600e8190555050565b60006108e382611629565b6004600083815260200190815260200160002060009054906101000a900473ffffffffffffffffffffffffffffffffffffffff169050919050565b600061092982610db3565b90508073ffffffffffffffffffffffffffffffffffffffff168373ffffffffffffffffffffffffffffffffffffffff1603610999576040517f08c379a00000000000000000000000000000000000000000000000000000000081526004016109909061360a565b60405180910390fd5b8073ffffffffffffffffffffffffffffffffffffffff166109b8611674565b73ffffffffffffffffffffffffffffffffffffffff1614806109e757506109e6816109e1611674565b611206565b5b610a26576040517f08c379a0000000000000000000000000000000000000000000000000000000008152600401610a1d9061369c565b60405180910390fd5b610a30838361167c565b505050565b6000610a4082611735565b610a7f576040517f08c379a0000000000000000000000000000000000000000000000000000000008152600401610a7690613708565b60405180910390fd5b600d6000838152602001908152602001600020549050919050565b600047905090565b6000600880549050905090565b610ac0610aba611674565b826117a1565b610aff576040517f08c379a0000000000000000000000000000000000000000000000000000000008152600401610af69061379a565b60405180910390fd5b610b0a838383611836565b505050565b6000610b1a83610f62565b8210610b5b576040517f08c379a0000000000000000000000000000000000000000000000000000000008152600401610b529061382c565b60405180910390fd5b600660008473ffffffffffffffffffffffffffffffffffffffff1673ffffffffffffffffffffffffffffffffffffffff168152602001908152602001600020600083815260200190815260200160002054905092915050565b610bcf83838360405180602001604052806000815250611159565b505050565b610be5610bdf611674565b826117a1565b610c24576040517f08c379a0000000000000000000000000000000000000000000000000000000008152600401610c1b9061379a565b60405180910390fd5b610c2d81611a9c565b50565b610c3a3383611aef565b610c79576040517f08c379a0000000000000000000000000000000000000000000000000000000008152600401610c7090613898565b60405180910390fd5b610c8282611735565b610cc1576040517f08c379a0000000000000000000000000000000000000000000000000000000008152600401610cb890613904565b60405180910390fd5b6064341015610d05576040517f08c379a0000000000000000000000000000000000000000000000000000000008152600401610cfc90613996565b60405180910390fd5b80600f60008481526020019081526020016000209081610d259190613b62565b5034600d6000848152602001908152602001600020819055505050565b6000610d4c610aa2565b8210610d8d576040517f08c379a0000000000000000000000000000000000000000000000000000000008152600401610d8490613ca6565b60405180910390fd5b60088281548110610da157610da0613cc6565b5b90600052602060002001549050919050565b6000806002600084815260200190815260200160002060009054906101000a900473ffffffffffffffffffffffffffffffffffffffff169050600073ffffffffffffffffffffffffffffffffffffffff168173ffffffffffffffffffffffffffffffffffffffff1603610e5b576040517f08c379a0000000000000000000000000000000000000000000000000000000008152600401610e5290613d41565b60405180910390fd5b80915050919050565b600c602052816000526040600020602052806000526040600020600091509150505481565b6000600e54600d600084815260200190815260200160002054610eac9190613dbf565b9050919050565b6060610ebe82611735565b50600f60008381526020019081526020016000208054610edd906134fb565b80601f0160208091040260200160405190810160405280929190818152602001828054610f09906134fb565b8015610f565780601f10610f2b57610100808354040283529160200191610f56565b820191906000526020600020905b815481529060010190602001808311610f3957829003601f168201915b50505050509050919050565b60008073ffffffffffffffffffffffffffffffffffffffff168273ffffffffffffffffffffffffffffffffffffffff1603610fd2576040517f08c379a0000000000000000000000000000000000000000000000000000000008152600401610fc990613e62565b60405180910390fd5b600360008373ffffffffffffffffffffffffffffffffffffffff1673ffffffffffffffffffffffffffffffffffffffff168152602001908152602001600020549050919050565b6110216115ab565b61102b6000611b35565b565b6000600b60009054906101000a900473ffffffffffffffffffffffffffffffffffffffff16905090565b61106081611735565b61109f576040517f08c379a000000000000000000000000000000000000000000000000000000000815260040161109690613708565b60405180910390fd5b6110a881611bfb565b50565b6060600180546110ba906134fb565b80601f01602080910402602001604051908101604052809291908181526020018280546110e6906134fb565b80156111335780601f1061110857610100808354040283529160200191611133565b820191906000526020600020905b81548152906001019060200180831161111657829003601f168201915b5050505050905090565b61114f611148611674565b8383611c34565b5050565b600e5481565b61116a611164611674565b836117a1565b6111a9576040517f08c379a00000000000000000000000000000000000000000000000000000000081526004016111a09061379a565b60405180910390fd5b6111b584848484611da0565b50505050565b60606111c682611dfc565b9050919050565b6111d56115ab565b60006111e16010611f0e565b90506111ed6010611f1c565b6111f78382611f32565b6112018183611f50565b505050565b6000600560008473ffffffffffffffffffffffffffffffffffffffff1673ffffffffffffffffffffffffffffffffffffffff16815260200190815260200160002060008373ffffffffffffffffffffffffffffffffffffffff1673ffffffffffffffffffffffffffffffffffffffff16815260200190815260200160002060009054906101000a900460ff16905092915050565b6112a381611735565b6112e2576040517f08c379a00000000000000000000000000000000000000000000000000000000081526004016112d990613708565b60405180910390fd5b600c60003373ffffffffffffffffffffffffffffffffffffffff1673ffffffffffffffffffffffffffffffffffffffff1681526020019081526020016000206000828152602001908152602001600020544211611374576040517f08c379a000000000000000000000000000000000000000000000000000000000815260040161136b90613ef4565b60405180910390fd5b6000600e54600d6000848152602001908152602001600020546113979190613dbf565b905080600d60008481526020019081526020016000205410156113ef576040517f08c379a00000000000000000000000000000000000000000000000000000000081526004016113e690613f86565b60405180910390fd5b6113f93382611fbd565b80600d6000848152602001908152602001600020546114189190613fa6565b600d60008481526020019081526020016000208190555062093a804261143e9190613fda565b600c60003373ffffffffffffffffffffffffffffffffffffffff1673ffffffffffffffffffffffffffffffffffffffff1681526020019081526020016000206000848152602001908152602001600020819055505050565b600d6020528060005260406000206000915090505481565b6114b66115ab565b600073ffffffffffffffffffffffffffffffffffffffff168173ffffffffffffffffffffffffffffffffffffffff1603611525576040517f08c379a000000000000000000000000000000000000000000000000000000000815260040161151c90614080565b60405180910390fd5b61152e81611b35565b50565b60007f780e9d63000000000000000000000000000000000000000000000000000000007bffffffffffffffffffffffffffffffffffffffffffffffffffffffff1916827bffffffffffffffffffffffffffffffffffffffffffffffffffffffff191614806115a457506115a3826120b1565b5b9050919050565b6115b3611674565b73ffffffffffffffffffffffffffffffffffffffff166115d161102d565b73ffffffffffffffffffffffffffffffffffffffff1614611627576040517f08c379a000000000000000000000000000000000000000000000000000000000815260040161161e906140ec565b60405180910390fd5b565b61163281611735565b611671576040517f08c379a000000000000000000000000000000000000000000000000000000000815260040161166890613d41565b60405180910390fd5b50565b600033905090565b816004600083815260200190815260200160002060006101000a81548173ffffffffffffffffffffffffffffffffffffffff021916908373ffffffffffffffffffffffffffffffffffffffff160217905550808273ffffffffffffffffffffffffffffffffffffffff166116ef83610db3565b73ffffffffffffffffffffffffffffffffffffffff167f8c5be1e5ebec7d5bd14f71427d1e84f3dd0314c0f7b2291e5b200ac8c7c3b92560405160405180910390a45050565b60008073ffffffffffffffffffffffffffffffffffffffff166002600084815260200190815260200160002060009054906101000a900473ffffffffffffffffffffffffffffffffffffffff1673ffffffffffffffffffffffffffffffffffffffff1614159050919050565b6000806117ad83610db3565b90508073ffffffffffffffffffffffffffffffffffffffff168473ffffffffffffffffffffffffffffffffffffffff1614806117ef57506117ee8185611206565b5b8061182d57508373ffffffffffffffffffffffffffffffffffffffff16611815846108d8565b73ffffffffffffffffffffffffffffffffffffffff16145b91505092915050565b8273ffffffffffffffffffffffffffffffffffffffff1661185682610db3565b73ffffffffffffffffffffffffffffffffffffffff16146118ac576040517f08c379a00000000000000000000000000000000000000000000000000000000081526004016118a39061417e565b60405180910390fd5b600073ffffffffffffffffffffffffffffffffffffffff168273ffffffffffffffffffffffffffffffffffffffff160361191b576040517f08c379a000000000000000000000000000000000000000000000000000000000815260040161191290614210565b60405180910390fd5b611926838383612193565b61193160008261167c565b6001600360008573ffffffffffffffffffffffffffffffffffffffff1673ffffffffffffffffffffffffffffffffffffffff16815260200190815260200160002060008282546119819190613fa6565b925050819055506001600360008473ffffffffffffffffffffffffffffffffffffffff1673ffffffffffffffffffffffffffffffffffffffff16815260200190815260200160002060008282546119d89190613fda565b92505081905550816002600083815260200190815260200160002060006101000a81548173ffffffffffffffffffffffffffffffffffffffff021916908373ffffffffffffffffffffffffffffffffffffffff160217905550808273ffffffffffffffffffffffffffffffffffffffff168473ffffffffffffffffffffffffffffffffffffffff167fddf252ad1be2c89b69c2b068fc378daa952ba7f163c4a11628f55a4df523b3ef60405160405180910390a4611a978383836121a3565b505050565b611aa5816121a8565b6000600f60008381526020019081526020016000208054611ac5906134fb565b905014611aec57600f60008281526020019081526020016000206000611aeb9190612d5c565b5b50565b600080611afb83610db3565b90508073ffffffffffffffffffffffffffffffffffffffff168473ffffffffffffffffffffffffffffffffffffffff161491505092915050565b6000600b60009054906101000a900473ffffffffffffffffffffffffffffffffffffffff16905081600b60006101000a81548173ffffffffffffffffffffffffffffffffffffffff021916908373ffffffffffffffffffffffffffffffffffffffff1602179055508173ffffffffffffffffffffffffffffffffffffffff168173ffffffffffffffffffffffffffffffffffffffff167f8be0079c531659141344cd1fd0a4f28419497f9722a3daafe3b4186f6b6457e060405160405180910390a35050565b34600d600083815260200190815260200160002054611c1a9190613fda565b600d60008381526020019081526020016000208190555050565b8173ffffffffffffffffffffffffffffffffffffffff168373ffffffffffffffffffffffffffffffffffffffff1603611ca2576040517f08c379a0000000000000000000000000000000000000000000000000000000008152600401611c999061427c565b60405180910390fd5b80600560008573ffffffffffffffffffffffffffffffffffffffff1673ffffffffffffffffffffffffffffffffffffffff16815260200190815260200160002060008473ffffffffffffffffffffffffffffffffffffffff1673ffffffffffffffffffffffffffffffffffffffff16815260200190815260200160002060006101000a81548160ff0219169083151502179055508173ffffffffffffffffffffffffffffffffffffffff168373ffffffffffffffffffffffffffffffffffffffff167f17307eab39ab6107e8899845ad3d59bd9653f200f220920489ca2b5937696c3183604051611d939190612e6d565b60405180910390a3505050565b611dab848484611836565b611db7848484846121fb565b611df6576040517f08c379a0000000000000000000000000000000000000000000000000000000008152600401611ded9061430e565b60405180910390fd5b50505050565b6060611e0782611629565b6000600a60008481526020019081526020016000208054611e27906134fb565b80601f0160208091040260200160405190810160405280929190818152602001828054611e53906134fb565b8015611ea05780601f10611e7557610100808354040283529160200191611ea0565b820191906000526020600020905b815481529060010190602001808311611e8357829003601f168201915b505050505090506000611eb1612382565b90506000815103611ec6578192505050611f09565b600082511115611efb578082604051602001611ee392919061436a565b60405160208183030381529060405292505050611f09565b611f0484612399565b925050505b919050565b600081600001549050919050565b6001816000016000828254019250508190555050565b611f4c828260405180602001604052806000815250612401565b5050565b611f5982611735565b611f98576040517f08c379a0000000000000000000000000000000000000000000000000000000008152600401611f8f90614400565b60405180910390fd5b80600a60008481526020019081526020016000209081611fb89190613b62565b505050565b80471015612000576040517f08c379a0000000000000000000000000000000000000000000000000000000008152600401611ff79061446c565b60405180910390fd5b60008273ffffffffffffffffffffffffffffffffffffffff1682604051612026906144bd565b60006040518083038185875af1925050503d8060008114612063576040519150601f19603f3d011682016040523d82523d6000602084013e612068565b606091505b50509050806120ac576040517f08c379a00000000000000000000000000000000000000000000000000000000081526004016120a390614544565b60405180910390fd5b505050565b60007f80ac58cd000000000000000000000000000000000000000000000000000000007bffffffffffffffffffffffffffffffffffffffffffffffffffffffff1916827bffffffffffffffffffffffffffffffffffffffffffffffffffffffff1916148061217c57507f5b5e139f000000000000000000000000000000000000000000000000000000007bffffffffffffffffffffffffffffffffffffffffffffffffffffffff1916827bffffffffffffffffffffffffffffffffffffffffffffffffffffffff1916145b8061218c575061218b8261245c565b5b9050919050565b61219e8383836124c6565b505050565b505050565b6121b1816125d8565b6000600a600083815260200190815260200160002080546121d1906134fb565b9050146121f857600a600082815260200190815260200160002060006121f79190612d5c565b5b50565b600061221c8473ffffffffffffffffffffffffffffffffffffffff166126f5565b15612375578373ffffffffffffffffffffffffffffffffffffffff1663150b7a02612245611674565b8786866040518563ffffffff1660e01b815260040161226794939291906145b9565b6020604051808303816000875af19250505080156122a357506040513d601f19601f820116820180604052508101906122a0919061461a565b60015b612325573d80600081146122d3576040519150601f19603f3d011682016040523d82523d6000602084013e6122d8565b606091505b50600081510361231d576040517f08c379a00000000000000000000000000000000000000000000000000000000081526004016123149061430e565b60405180910390fd5b805181602001fd5b63150b7a0260e01b7bffffffffffffffffffffffffffffffffffffffffffffffffffffffff1916817bffffffffffffffffffffffffffffffffffffffffffffffffffffffff19161491505061237a565b600190505b949350505050565b606060405180602001604052806000815250905090565b60606123a482611629565b60006123ae612382565b905060008151116123ce57604051806020016040528060008152506123f9565b806123d884612718565b6040516020016123e992919061436a565b6040516020818303038152906040525b915050919050565b61240b8383612878565b61241860008484846121fb565b612457576040517f08c379a000000000000000000000000000000000000000000000000000000000815260040161244e9061430e565b60405180910390fd5b505050565b60007f01ffc9a7000000000000000000000000000000000000000000000000000000007bffffffffffffffffffffffffffffffffffffffffffffffffffffffff1916827bffffffffffffffffffffffffffffffffffffffffffffffffffffffff1916149050919050565b6124d1838383612a51565b600073ffffffffffffffffffffffffffffffffffffffff168373ffffffffffffffffffffffffffffffffffffffff16036125135761250e81612a56565b612552565b8173ffffffffffffffffffffffffffffffffffffffff168373ffffffffffffffffffffffffffffffffffffffff1614612551576125508382612a9f565b5b5b600073ffffffffffffffffffffffffffffffffffffffff168273ffffffffffffffffffffffffffffffffffffffff16036125945761258f81612c0c565b6125d3565b8273ffffffffffffffffffffffffffffffffffffffff168273ffffffffffffffffffffffffffffffffffffffff16146125d2576125d18282612cdd565b5b5b505050565b60006125e382610db3565b90506125f181600084612193565b6125fc60008361167c565b6001600360008373ffffffffffffffffffffffffffffffffffffffff1673ffffffffffffffffffffffffffffffffffffffff168152602001908152602001600020600082825461264c9190613fa6565b925050819055506002600083815260200190815260200160002060006101000a81549073ffffffffffffffffffffffffffffffffffffffff021916905581600073ffffffffffffffffffffffffffffffffffffffff168273ffffffffffffffffffffffffffffffffffffffff167fddf252ad1be2c89b69c2b068fc378daa952ba7f163c4a11628f55a4df523b3ef60405160405180910390a46126f1816000846121a3565b5050565b6000808273ffffffffffffffffffffffffffffffffffffffff163b119050919050565b60606000820361275f576040518060400160405280600181526020017f30000000000000000000000000000000000000000000000000000000000000008152509050612873565b600082905060005b6000821461279157808061277a90614647565b915050600a8261278a9190613dbf565b9150612767565b60008167ffffffffffffffff8111156127ad576127ac6130ec565b5b6040519080825280601f01601f1916602001820160405280156127df5781602001600182028036833780820191505090505b5090505b6000851461286c576001826127f89190613fa6565b9150600a85612807919061468f565b60306128139190613fda565b60f81b81838151811061282957612828613cc6565b5b60200101907effffffffffffffffffffffffffffffffffffffffffffffffffffffffffffff1916908160001a905350600a856128659190613dbf565b94506127e3565b8093505050505b919050565b600073ffffffffffffffffffffffffffffffffffffffff168273ffffffffffffffffffffffffffffffffffffffff16036128e7576040517f08c379a00000000000000000000000000000000000000000000000000000000081526004016128de9061470c565b60405180910390fd5b6128f081611735565b15612930576040517f08c379a000000000000000000000000000000000000000000000000000000000815260040161292790614778565b60405180910390fd5b61293c60008383612193565b6001600360008473ffffffffffffffffffffffffffffffffffffffff1673ffffffffffffffffffffffffffffffffffffffff168152602001908152602001600020600082825461298c9190613fda565b92505081905550816002600083815260200190815260200160002060006101000a81548173ffffffffffffffffffffffffffffffffffffffff021916908373ffffffffffffffffffffffffffffffffffffffff160217905550808273ffffffffffffffffffffffffffffffffffffffff16600073ffffffffffffffffffffffffffffffffffffffff167fddf252ad1be2c89b69c2b068fc378daa952ba7f163c4a11628f55a4df523b3ef60405160405180910390a4612a4d600083836121a3565b5050565b505050565b6008805490506009600083815260200190815260200160002081905550600881908060018154018082558091505060019003906000526020600020016000909190919091505550565b60006001612aac84610f62565b612ab69190613fa6565b9050600060076000848152602001908152602001600020549050818114612b9b576000600660008673ffffffffffffffffffffffffffffffffffffffff1673ffffffffffffffffffffffffffffffffffffffff168152602001908152602001600020600084815260200190815260200160002054905080600660008773ffffffffffffffffffffffffffffffffffffffff1673ffffffffffffffffffffffffffffffffffffffff168152602001908152602001600020600084815260200190815260200160002081905550816007600083815260200190815260200160002081905550505b6007600084815260200190815260200160002060009055600660008573ffffffffffffffffffffffffffffffffffffffff1673ffffffffffffffffffffffffffffffffffffffff16815260200190815260200160002060008381526020019081526020016000206000905550505050565b60006001600880549050612c209190613fa6565b9050600060096000848152602001908152602001600020549050600060088381548110612c5057612c4f613cc6565b5b906000526020600020015490508060088381548110612c7257612c71613cc6565b5b906000526020600020018190555081600960008381526020019081526020016000208190555060096000858152602001908152602001600020600090556008805480612cc157612cc0614798565b5b6001900381819060005260206000200160009055905550505050565b6000612ce883610f62565b905081600660008573ffffffffffffffffffffffffffffffffffffffff1673ffffffffffffffffffffffffffffffffffffffff168152602001908152602001600020600083815260200190815260200160002081905550806007600084815260200190815260200160002081905550505050565b508054612d68906134fb565b6000825580601f10612d7a5750612d99565b601f016020900490600052602060002090810190612d989190612d9c565b5b50565b5b80821115612db5576000816000905550600101612d9d565b5090565b6000604051905090565b600080fd5b600080fd5b60007fffffffff0000000000000000000000000000000000000000000000000000000082169050919050565b612e0281612dcd565b8114612e0d57600080fd5b50565b600081359050612e1f81612df9565b92915050565b600060208284031215612e3b57612e3a612dc3565b5b6000612e4984828501612e10565b91505092915050565b60008115159050919050565b612e6781612e52565b82525050565b6000602082019050612e826000830184612e5e565b92915050565b600081519050919050565b600082825260208201905092915050565b60005b83811015612ec2578082015181840152602081019050612ea7565b60008484015250505050565b6000601f19601f8301169050919050565b6000612eea82612e88565b612ef48185612e93565b9350612f04818560208601612ea4565b612f0d81612ece565b840191505092915050565b60006020820190508181036000830152612f328184612edf565b905092915050565b6000819050919050565b612f4d81612f3a565b8114612f5857600080fd5b50565b600081359050612f6a81612f44565b92915050565b600060208284031215612f8657612f85612dc3565b5b6000612f9484828501612f5b565b91505092915050565b600073ffffffffffffffffffffffffffffffffffffffff82169050919050565b6000612fc882612f9d565b9050919050565b612fd881612fbd565b82525050565b6000602082019050612ff36000830184612fcf565b92915050565b61300281612fbd565b811461300d57600080fd5b50565b60008135905061301f81612ff9565b92915050565b6000806040838503121561303c5761303b612dc3565b5b600061304a85828601613010565b925050602061305b85828601612f5b565b9150509250929050565b61306e81612f3a565b82525050565b60006020820190506130896000830184613065565b92915050565b6000806000606084860312156130a8576130a7612dc3565b5b60006130b686828701613010565b93505060206130c786828701613010565b92505060406130d886828701612f5b565b9150509250925092565b600080fd5b600080fd5b7f4e487b7100000000000000000000000000000000000000000000000000000000600052604160045260246000fd5b61312482612ece565b810181811067ffffffffffffffff82111715613143576131426130ec565b5b80604052505050565b6000613156612db9565b9050613162828261311b565b919050565b600067ffffffffffffffff821115613182576131816130ec565b5b61318b82612ece565b9050602081019050919050565b82818337600083830152505050565b60006131ba6131b584613167565b61314c565b9050828152602081018484840111156131d6576131d56130e7565b5b6131e1848285613198565b509392505050565b600082601f8301126131fe576131fd6130e2565b5b813561320e8482602086016131a7565b91505092915050565b6000806040838503121561322e5761322d612dc3565b5b600061323c85828601612f5b565b925050602083013567ffffffffffffffff81111561325d5761325c612dc8565b5b613269858286016131e9565b9150509250929050565b60006020828403121561328957613288612dc3565b5b600061329784828501613010565b91505092915050565b6132a981612e52565b81146132b457600080fd5b50565b6000813590506132c6816132a0565b92915050565b600080604083850312156132e3576132e2612dc3565b5b60006132f185828601613010565b9250506020613302858286016132b7565b9150509250929050565b600067ffffffffffffffff821115613327576133266130ec565b5b61333082612ece565b9050602081019050919050565b600061335061334b8461330c565b61314c565b90508281526020810184848401111561336c5761336b6130e7565b5b613377848285613198565b509392505050565b600082601f830112613394576133936130e2565b5b81356133a484826020860161333d565b91505092915050565b600080600080608085870312156133c7576133c6612dc3565b5b60006133d587828801613010565b94505060206133e687828801613010565b93505060406133f787828801612f5b565b925050606085013567ffffffffffffffff81111561341857613417612dc8565b5b6134248782880161337f565b91505092959194509250565b6000806040838503121561344757613446612dc3565b5b600061345585828601613010565b925050602083013567ffffffffffffffff81111561347657613475612dc8565b5b613482858286016131e9565b9150509250929050565b600080604083850312156134a3576134a2612dc3565b5b60006134b185828601613010565b92505060206134c285828601613010565b9150509250929050565b7f4e487b7100000000000000000000000000000000000000000000000000000000600052602260045260246000fd5b6000600282049050600182168061351357607f821691505b602082108103613526576135256134cc565b5b50919050565b7f4e756d206d7573742062652067726561746572207468616e2030000000000000600082015250565b6000613562601a83612e93565b915061356d8261352c565b602082019050919050565b6000602082019050818103600083015261359181613555565b9050919050565b7f4552433732313a20617070726f76616c20746f2063757272656e74206f776e6560008201527f7200000000000000000000000000000000000000000000000000000000000000602082015250565b60006135f4602183612e93565b91506135ff82613598565b604082019050919050565b60006020820190508181036000830152613623816135e7565b9050919050565b7f4552433732313a20617070726f76652063616c6c6572206973206e6f7420746f60008201527f6b656e206f776e6572206e6f7220617070726f76656420666f7220616c6c0000602082015250565b6000613686603e83612e93565b91506136918261362a565b604082019050919050565b600060208201905081810360008301526136b581613679565b9050919050565b7f546f6b656e206e6f742065786973747300000000000000000000000000000000600082015250565b60006136f2601083612e93565b91506136fd826136bc565b602082019050919050565b60006020820190508181036000830152613721816136e5565b9050919050565b7f4552433732313a2063616c6c6572206973206e6f7420746f6b656e206f776e6560008201527f72206e6f7220617070726f766564000000000000000000000000000000000000602082015250565b6000613784602e83612e93565b915061378f82613728565b604082019050919050565b600060208201905081810360008301526137b381613777565b9050919050565b7f455243373231456e756d657261626c653a206f776e657220696e646578206f7560008201527f74206f6620626f756e6473000000000000000000000000000000000000000000602082015250565b6000613816602b83612e93565b9150613821826137ba565b604082019050919050565b6000602082019050818103600083015261384581613809565b9050919050565b7f43616c6c6572206973206e6f7420746f6b656e206f776e657200000000000000600082015250565b6000613882601983612e93565b915061388d8261384c565b602082019050919050565b600060208201905081810360008301526138b181613875565b9050919050565b7f55524920736574206f66206e6f6e6578697374656e7420746f6b656e00000000600082015250565b60006138ee601c83612e93565b91506138f9826138b8565b602082019050919050565b6000602082019050818103600083015261391d816138e1565b9050919050565b7f736574436f6e74656e74206e656564732074782076616c7565206d6f7265207460008201527f68616e2031303020776569000000000000000000000000000000000000000000602082015250565b6000613980602b83612e93565b915061398b82613924565b604082019050919050565b600060208201905081810360008301526139af81613973565b9050919050565b60008190508160005260206000209050919050565b60006020601f8301049050919050565b600082821b905092915050565b600060088302613a187fffffffffffffffffffffffffffffffffffffffffffffffffffffffffffffffff826139db565b613a2286836139db565b95508019841693508086168417925050509392505050565b6000819050919050565b6000613a5f613a5a613a5584612f3a565b613a3a565b612f3a565b9050919050565b6000819050919050565b613a7983613a44565b613a8d613a8582613a66565b8484546139e8565b825550505050565b600090565b613aa2613a95565b613aad818484613a70565b505050565b5b81811015613ad157613ac6600082613a9a565b600181019050613ab3565b5050565b601f821115613b1657613ae7816139b6565b613af0846139cb565b81016020851015613aff578190505b613b13613b0b856139cb565b830182613ab2565b50505b505050565b600082821c905092915050565b6000613b3960001984600802613b1b565b1980831691505092915050565b6000613b528383613b28565b9150826002028217905092915050565b613b6b82612e88565b67ffffffffffffffff811115613b8457613b836130ec565b5b613b8e82546134fb565b613b99828285613ad5565b600060209050601f831160018114613bcc5760008415613bba578287015190505b613bc48582613b46565b865550613c2c565b601f198416613bda866139b6565b60005b82811015613c0257848901518255600182019150602085019450602081019050613bdd565b86831015613c1f5784890151613c1b601f891682613b28565b8355505b6001600288020188555050505b505050505050565b7f455243373231456e756d657261626c653a20676c6f62616c20696e646578206f60008201527f7574206f6620626f756e64730000000000000000000000000000000000000000602082015250565b6000613c90602c83612e93565b9150613c9b82613c34565b604082019050919050565b60006020820190508181036000830152613cbf81613c83565b9050919050565b7f4e487b7100000000000000000000000000000000000000000000000000000000600052603260045260246000fd5b7f4552433732313a20696e76616c696420746f6b656e2049440000000000000000600082015250565b6000613d2b601883612e93565b9150613d3682613cf5565b602082019050919050565b60006020820190508181036000830152613d5a81613d1e565b9050919050565b7f4e487b7100000000000000000000000000000000000000000000000000000000600052601260045260246000fd5b7f4e487b7100000000000000000000000000000000000000000000000000000000600052601160045260246000fd5b6000613dca82612f3a565b9150613dd583612f3a565b925082613de557613de4613d61565b5b828204905092915050565b7f4552433732313a2061646472657373207a65726f206973206e6f74206120766160008201527f6c6964206f776e65720000000000000000000000000000000000000000000000602082015250565b6000613e4c602983612e93565b9150613e5782613df0565b604082019050919050565b60006020820190508181036000830152613e7b81613e3f565b9050919050565b7f6c6f636b2074696d6520686173206e6f7420657870697265642e20506c65617360008201527f652074727920616761696e206c61746572000000000000000000000000000000602082015250565b6000613ede603183612e93565b9150613ee982613e82565b604082019050919050565b60006020820190508181036000830152613f0d81613ed1565b9050919050565b7f4e6f7420656e6f7567682066756e647320696e2074686520746f6b656e2e206460008201527f6f6e617465207265717569726564000000000000000000000000000000000000602082015250565b6000613f70602e83612e93565b9150613f7b82613f14565b604082019050919050565b60006020820190508181036000830152613f9f81613f63565b9050919050565b6000613fb182612f3a565b9150613fbc83612f3a565b9250828203905081811115613fd457613fd3613d90565b5b92915050565b6000613fe582612f3a565b9150613ff083612f3a565b925082820190508082111561400857614007613d90565b5b92915050565b7f4f776e61626c653a206e6577206f776e657220697320746865207a65726f206160008201527f6464726573730000000000000000000000000000000000000000000000000000602082015250565b600061406a602683612e93565b91506140758261400e565b604082019050919050565b600060208201905081810360008301526140998161405d565b9050919050565b7f4f776e61626c653a2063616c6c6572206973206e6f7420746865206f776e6572600082015250565b60006140d6602083612e93565b91506140e1826140a0565b602082019050919050565b60006020820190508181036000830152614105816140c9565b9050919050565b7f4552433732313a207472616e736665722066726f6d20696e636f72726563742060008201527f6f776e6572000000000000000000000000000000000000000000000000000000602082015250565b6000614168602583612e93565b91506141738261410c565b604082019050919050565b600060208201905081810360008301526141978161415b565b9050919050565b7f4552433732313a207472616e7366657220746f20746865207a65726f2061646460008201527f7265737300000000000000000000000000000000000000000000000000000000602082015250565b60006141fa602483612e93565b91506142058261419e565b604082019050919050565b60006020820190508181036000830152614229816141ed565b9050919050565b7f4552433732313a20617070726f766520746f2063616c6c657200000000000000600082015250565b6000614266601983612e93565b915061427182614230565b602082019050919050565b6000602082019050818103600083015261429581614259565b9050919050565b7f4552433732313a207472616e7366657220746f206e6f6e20455243373231526560008201527f63656976657220696d706c656d656e7465720000000000000000000000000000602082015250565b60006142f8603283612e93565b91506143038261429c565b604082019050919050565b60006020820190508181036000830152614327816142eb565b9050919050565b600081905092915050565b600061434482612e88565b61434e818561432e565b935061435e818560208601612ea4565b80840191505092915050565b60006143768285614339565b91506143828284614339565b91508190509392505050565b7f45524337323155524953746f726167653a2055524920736574206f66206e6f6e60008201527f6578697374656e7420746f6b656e000000000000000000000000000000000000602082015250565b60006143ea602e83612e93565b91506143f58261438e565b604082019050919050565b60006020820190508181036000830152614419816143dd565b9050919050565b7f416464726573733a20696e73756666696369656e742062616c616e6365000000600082015250565b6000614456601d83612e93565b915061446182614420565b602082019050919050565b6000602082019050818103600083015261448581614449565b9050919050565b600081905092915050565b50565b60006144a760008361448c565b91506144b282614497565b600082019050919050565b60006144c88261449a565b9150819050919050565b7f416464726573733a20756e61626c6520746f2073656e642076616c75652c207260008201527f6563697069656e74206d61792068617665207265766572746564000000000000602082015250565b600061452e603a83612e93565b9150614539826144d2565b604082019050919050565b6000602082019050818103600083015261455d81614521565b9050919050565b600081519050919050565b600082825260208201905092915050565b600061458b82614564565b614595818561456f565b93506145a5818560208601612ea4565b6145ae81612ece565b840191505092915050565b60006080820190506145ce6000830187612fcf565b6145db6020830186612fcf565b6145e86040830185613065565b81810360608301526145fa8184614580565b905095945050505050565b60008151905061461481612df9565b92915050565b6000602082840312156146305761462f612dc3565b5b600061463e84828501614605565b91505092915050565b600061465282612f3a565b91507fffffffffffffffffffffffffffffffffffffffffffffffffffffffffffffffff820361468457614683613d90565b5b600182019050919050565b600061469a82612f3a565b91506146a583612f3a565b9250826146b5576146b4613d61565b5b828206905092915050565b7f4552433732313a206d696e7420746f20746865207a65726f2061646472657373600082015250565b60006146f6602083612e93565b9150614701826146c0565b602082019050919050565b60006020820190508181036000830152614725816146e9565b9050919050565b7f4552433732313a20746f6b656e20616c7265616479206d696e74656400000000600082015250565b6000614762601c83612e93565b915061476d8261472c565b602082019050919050565b6000602082019050818103600083015261479181614755565b9050919050565b7f4e487b7100000000000000000000000000000000000000000000000000000000600052603160045260246000fdfea2646970667358221220ea7ed07b8f9f4feaffbfb01bc1a591869983f41e744f1541fd2b98a15c4a3b5c64736f6c63430008110033",
  "linkReferences": {},
  "deployedLinkReferences": {}
}